{"abi":[{"type":"function","name":"buy","inputs":[{"name":"listingId","type":"uint256","internalType":"uint256"}],"outputs":[],"stateMutability":"payable"},{"type":"function","name":"getListing","inputs":[{"name":"listingId","type":"uint256","internalType":"uint256"}],"outputs":[{"name":"","type":"tuple","internalType":"struct Marketplace.Listing","components":[{"name":"seller","type":"address","internalType":"address"},{"name":"tokenAddress","type":"address","internalType":"address"},{"name":"amount","type":"uint256","internalType":"uint256"},{"name":"pricePerUnit","type":"uint256","internalType":"uint256"},{"name":"active","type":"bool","internalType":"bool"}]}],"stateMutability":"view"},{"type":"function","name":"list","inputs":[{"name":"tokenAddress","type":"address","internalType":"address"},{"name":"amount","type":"uint256","internalType":"uint256"},{"name":"pricePerUnit","type":"uint256","internalType":"uint256"}],"outputs":[{"name":"","type":"uint256","internalType":"uint256"}],"stateMutability":"nonpayable"},{"type":"function","name":"listingCount","inputs":[],"outputs":[{"name":"","type":"uint256","internalType":"uint256"}],"stateMutability":"view"},{"type":"function","name":"listings","inputs":[{"name":"","type":"uint256","internalType":"uint256"}],"outputs":[{"name":"seller","type":"address","internalType":"address"},{"name":"tokenAddress","type":"address","internalType":"address"},{"name":"amount","type":"uint256","internalType":"uint256"},{"name":"pricePerUnit","type":"uint256","internalType":"uint256"},{"name":"active","type":"bool","internalType":"bool"}],"stateMutability":"view"},{"type":"event","name":"Listed","inputs":[{"name":"listingId","type":"uint256","indexed":true,"internalType":"uint256"},{"name":"seller","type":"address","indexed":true,"internalType":"address"},{"name":"tokenAddress","type":"address","indexed":false,"internalType":"address"},{"name":"amount","type":"uint256","indexed":false,"internalType":"uint256"},{"name":"pricePerUnit","type":"uint256","indexed":false,"internalType":"uint256"}],"anonymous":false}],"bytecode":{"object":"0x608060405234801561001057600080fd5b50610a65806100206000396000f3fe60806040526004361061004a5760003560e01c8063107a274a1461004f578063a9b07c261461008c578063d96a094a146100b7578063dda342bb146100d3578063de74e57b14610110575b600080fd5b34801561005b57600080fd5b506100766004803603810190610071919061063a565b610151565b604051610083919061073a565b60405180910390f35b34801561009857600080fd5b506100a1610268565b6040516100ae9190610764565b60405180910390f35b6100d160048036038101906100cc919061063a565b610274565b005b3480156100df57600080fd5b506100fa60048036038101906100f591906107ab565b610361565b6040516101079190610764565b60405180910390f35b34801561011c57600080fd5b506101376004803603810190610132919061063a565b61050f565b60405161014895949392919061081c565b60405180910390f35b6101596105a2565b6000828154811061016d5761016c61086f565b5b90600052602060002090600502016040518060a00160405290816000820160009054906101000a900473ffffffffffffffffffffffffffffffffffffffff1673ffffffffffffffffffffffffffffffffffffffff1673ffffffffffffffffffffffffffffffffffffffff1681526020016001820160009054906101000a900473ffffffffffffffffffffffffffffffffffffffff1673ffffffffffffffffffffffffffffffffffffffff1673ffffffffffffffffffffffffffffffffffffffff16815260200160028201548152602001600382015481526020016004820160009054906101000a900460ff1615151515815250509050919050565b60008080549050905090565b60008082815481106102895761028861086f565b5b906000526020600020906005020190508060040160009054906101000a900460ff166102ea576040517f08c379a00000000000000000000000000000000000000000000000000000000081526004016102e1906108fb565b60405180910390fd5b806003015481600201546102fe919061094a565b341015610340576040517f08c379a0000000000000000000000000000000000000000000000000000000008152600401610337906109d8565b60405180910390fd5b60008160040160006101000a81548160ff0219169083151502179055505050565b600080600080549050905060006040518060a001604052803373ffffffffffffffffffffffffffffffffffffffff1681526020018773ffffffffffffffffffffffffffffffffffffffff16815260200186815260200185815260200160011515815250908060018154018082558091505060019003906000526020600020906005020160009091909190915060008201518160000160006101000a81548173ffffffffffffffffffffffffffffffffffffffff021916908373ffffffffffffffffffffffffffffffffffffffff16021790555060208201518160010160006101000a81548173ffffffffffffffffffffffffffffffffffffffff021916908373ffffffffffffffffffffffffffffffffffffffff160217905550604082015181600201556060820151816003015560808201518160040160006101000a81548160ff02191690831515021790555050503373ffffffffffffffffffffffffffffffffffffffff16817f723f73331eaee88eec7fc68ef60ab6ed15e4b90d0472b55eb92fa43910bab6dd8787876040516104fc939291906109f8565b60405180910390a3809150509392505050565b6000818154811061051f57600080fd5b90600052602060002090600502016000915090508060000160009054906101000a900473ffffffffffffffffffffffffffffffffffffffff16908060010160009054906101000a900473ffffffffffffffffffffffffffffffffffffffff16908060020154908060030154908060040160009054906101000a900460ff16905085565b6040518060a00160405280600073ffffffffffffffffffffffffffffffffffffffff168152602001600073ffffffffffffffffffffffffffffffffffffffff16815260200160008152602001600081526020016000151581525090565b600080fd5b6000819050919050565b61061781610604565b811461062257600080fd5b50565b6000813590506106348161060e565b92915050565b6000602082840312156106505761064f6105ff565b5b600061065e84828501610625565b91505092915050565b600073ffffffffffffffffffffffffffffffffffffffff82169050919050565b600061069282610667565b9050919050565b6106a281610687565b82525050565b6106b181610604565b82525050565b60008115159050919050565b6106cc816106b7565b82525050565b60a0820160008201516106e86000850182610699565b5060208201516106fb6020850182610699565b50604082015161070e60408501826106a8565b50606082015161072160608501826106a8565b50608082015161073460808501826106c3565b50505050565b600060a08201905061074f60008301846106d2565b92915050565b61075e81610604565b82525050565b60006020820190506107796000830184610755565b92915050565b61078881610687565b811461079357600080fd5b50565b6000813590506107a58161077f565b92915050565b6000806000606084860312156107c4576107c36105ff565b5b60006107d286828701610796565b93505060206107e386828701610625565b92505060406107f486828701610625565b9150509250925092565b61080781610687565b82525050565b610816816106b7565b82525050565b600060a08201905061083160008301886107fe565b61083e60208301876107fe565b61084b6040830186610755565b6108586060830185610755565b610865608083018461080d565b9695505050505050565b7f4e487b7100000000000000000000000000000000000000000000000000000000600052603260045260246000fd5b600082825260208201905092915050565b7f4e6f742061637469766500000000000000000000000000000000000000000000600082015250565b60006108e5600a8361089e565b91506108f0826108af565b602082019050919050565b60006020820190508181036000830152610914816108d8565b9050919050565b7f4e487b7100000000000000000000000000000000000000000000000000000000600052601160045260246000fd5b600061095582610604565b915061096083610604565b925082820261096e81610604565b915082820484148315176109855761098461091b565b5b5092915050565b7f496e73756666696369656e74207061796d656e74000000000000000000000000600082015250565b60006109c260148361089e565b91506109cd8261098c565b602082019050919050565b600060208201905081810360008301526109f1816109b5565b9050919050565b6000606082019050610a0d60008301866107fe565b610a1a6020830185610755565b610a276040830184610755565b94935050505056fea264697066735822122007815569aadcd21aa37a451c9d891a7a49f16109040886a91a864939866fe00d64736f6c63430008140033","linkReferences":{}},"methodIdentifiers":{"buy(uint256)":"d96a094a","getListing(uint256)":"107a274a","list(address,uint256,uint256)":"dda342bb","listingCount()":"a9b07c26","listings(uint256)":"de74e57b"},"id":1}