{"abi":[{"type":"function","name":"attest","inputs":[{"name":"tokenAddress","type":"address","internalType":"address"},{"name":"assetType","type":"string","internalType":"string"},{"name":"riskScore","type":"uint256","internalType":"uint256"},{"name":"complianceStatus","type":"string","internalType":"string"},{"name":"metadata","type":"string","internalType":"string"}],"outputs":[{"name":"","type":"uint256","internalType":"uint256"}],"stateMutability":"nonpayable"},{"type":"function","name":"attestationCount","inputs":[],"outputs":[{"name":"","type":"uint256","internalType":"uint256"}],"stateMutability":"view"},{"type":"function","name":"attestations","inputs":[{"name":"","type":"address","internalType":"address"}],"outputs":[{"name":"issuer","type":"address","internalType":"address"},{"name":"tokenAddress","type":"address","internalType":"address"},{"name":"assetType","type":"string","internalType":"string"},{"name":"riskScore","type":"uint256","internalType":"uint256"},{"name":"complianceStatus","type":"string","internalType":"string"},{"name":"metadata","type":"string","internalType":"string"},{"name":"timestamp","type":"uint256","internalType":"uint256"}],"stateMutability":"view"},{"type":"function","name":"getAttestation","inputs":[{"name":"tokenAddress","type":"address","internalType":"address"}],"outputs":[{"name":"","type":"tuple","internalType":"struct Attestation.AttestationData","components":[{"name":"issuer","type":"address","internalType":"address"},{"name":"tokenAddress","type":"address","internalType":"address"},{"name":"assetType","type":"string","internalType":"string"},{"name":"riskScore","type":"uint256","internalType":"uint256"},{"name":"complianceStatus","type":"string","internalType":"string"},{"name":"metadata","type":"string","internalType":"string"},{"name":"timestamp","type":"uint256","internalType":"uint256"}]}],"stateMutability":"view"},{"type":"event","name":"AttestationCreated","inputs":[{"name":"tokenAddress","type":"address","indexed":true,"internalType":"address"},{"name":"issuer","type":"address","indexed":true,"internalType":"address"},{"name":"riskScore","type":"uint256","indexed":false,"internalType":"uint256"}],"anonymous":false}],"bytecode":{"object":"0x608060405234801561001057600080fd5b50611183806100206000396000f3fe608060405234801561001057600080fd5b506004361061004c5760003560e01c80632035704814610051578063a15b932114610087578063f7599eba146100a5578063f9b71797146100d5575b600080fd5b61006b600480360381019061006691906109a4565b610105565b60405161007e9796959493929190610a89565b60405180910390f35b61008f61031f565b60405161009c9190610b0d565b60405180910390f35b6100bf60048036038101906100ba9190610bb9565b610325565b6040516100cc9190610b0d565b60405180910390f35b6100ef60048036038101906100ea91906109a4565b610605565b6040516100fc9190610da7565b60405180910390f35b60006020528060005260406000206000915090508060000160009054906101000a900473ffffffffffffffffffffffffffffffffffffffff16908060010160009054906101000a900473ffffffffffffffffffffffffffffffffffffffff169080600201805461017490610df8565b80601f01602080910402602001604051908101604052809291908181526020018280546101a090610df8565b80156101ed5780601f106101c2576101008083540402835291602001916101ed565b820191906000526020600020905b8154815290600101906020018083116101d057829003601f168201915b50505050509080600301549080600401805461020890610df8565b80601f016020809104026020016040519081016040528092919081815260200182805461023490610df8565b80156102815780601f1061025657610100808354040283529160200191610281565b820191906000526020600020905b81548152906001019060200180831161026457829003601f168201915b50505050509080600501805461029690610df8565b80601f01602080910402602001604051908101604052809291908181526020018280546102c290610df8565b801561030f5780601f106102e45761010080835404028352916020019161030f565b820191906000526020600020905b8154815290600101906020018083116102f257829003601f168201915b5050505050908060060154905087565b60015481565b60006040518060e001604052803373ffffffffffffffffffffffffffffffffffffffff1681526020018a73ffffffffffffffffffffffffffffffffffffffff16815260200189898080601f016020809104026020016040519081016040528093929190818152602001838380828437600081840152601f19601f82011690508083019250505050505050815260200187815260200186868080601f016020809104026020016040519081016040528093929190818152602001838380828437600081840152601f19601f82011690508083019250505050505050815260200184848080601f016020809104026020016040519081016040528093929190818152602001838380828437600081840152601f19601f820116905080830192505050505050508152602001428152506000808b73ffffffffffffffffffffffffffffffffffffffff1673ffffffffffffffffffffffffffffffffffffffff16815260200190815260200160002060008201518160000160006101000a81548173ffffffffffffffffffffffffffffffffffffffff021916908373ffffffffffffffffffffffffffffffffffffffff16021790555060208201518160010160006101000a81548173ffffffffffffffffffffffffffffffffffffffff021916908373ffffffffffffffffffffffffffffffffffffffff16021790555060408201518160020190816105339190611004565b506060820151816003015560808201518160040190816105539190611004565b5060a08201518160050190816105699190611004565b5060c082015181600601559050506001600081548092919061058a90611105565b91905055503373ffffffffffffffffffffffffffffffffffffffff168973ffffffffffffffffffffffffffffffffffffffff167f4f976a701f2de0c2399c7d0225edce04178064ac9d7ba59903f3125838bdf8e8886040516105ec9190610b0d565b60405180910390a3600154905098975050505050505050565b61060d6108d3565b6000808373ffffffffffffffffffffffffffffffffffffffff1673ffffffffffffffffffffffffffffffffffffffff1681526020019081526020016000206040518060e00160405290816000820160009054906101000a900473ffffffffffffffffffffffffffffffffffffffff1673ffffffffffffffffffffffffffffffffffffffff1673ffffffffffffffffffffffffffffffffffffffff1681526020016001820160009054906101000a900473ffffffffffffffffffffffffffffffffffffffff1673ffffffffffffffffffffffffffffffffffffffff1673ffffffffffffffffffffffffffffffffffffffff16815260200160028201805461071290610df8565b80601f016020809104026020016040519081016040528092919081815260200182805461073e90610df8565b801561078b5780601f106107605761010080835404028352916020019161078b565b820191906000526020600020905b81548152906001019060200180831161076e57829003601f168201915b50505050508152602001600382015481526020016004820180546107ae90610df8565b80601f01602080910402602001604051908101604052809291908181526020018280546107da90610df8565b80156108275780601f106107fc57610100808354040283529160200191610827565b820191906000526020600020905b81548152906001019060200180831161080a57829003601f168201915b5050505050815260200160058201805461084090610df8565b80601f016020809104026020016040519081016040528092919081815260200182805461086c90610df8565b80156108b95780601f1061088e576101008083540402835291602001916108b9565b820191906000526020600020905b81548152906001019060200180831161089c57829003601f168201915b505050505081526020016006820154815250509050919050565b6040518060e00160405280600073ffffffffffffffffffffffffffffffffffffffff168152602001600073ffffffffffffffffffffffffffffffffffffffff16815260200160608152602001600081526020016060815260200160608152602001600081525090565b600080fd5b600080fd5b600073ffffffffffffffffffffffffffffffffffffffff82169050919050565b600061097182610946565b9050919050565b61098181610966565b811461098c57600080fd5b50565b60008135905061099e81610978565b92915050565b6000602082840312156109ba576109b961093c565b5b60006109c88482850161098f565b91505092915050565b6109da81610966565b82525050565b600081519050919050565b600082825260208201905092915050565b60005b83811015610a1a5780820151818401526020810190506109ff565b60008484015250505050565b6000601f19601f8301169050919050565b6000610a42826109e0565b610a4c81856109eb565b9350610a5c8185602086016109fc565b610a6581610a26565b840191505092915050565b6000819050919050565b610a8381610a70565b82525050565b600060e082019050610a9e600083018a6109d1565b610aab60208301896109d1565b8181036040830152610abd8188610a37565b9050610acc6060830187610a7a565b8181036080830152610ade8186610a37565b905081810360a0830152610af28185610a37565b9050610b0160c0830184610a7a565b98975050505050505050565b6000602082019050610b226000830184610a7a565b92915050565b600080fd5b600080fd5b600080fd5b60008083601f840112610b4d57610b4c610b28565b5b8235905067ffffffffffffffff811115610b6a57610b69610b2d565b5b602083019150836001820283011115610b8657610b85610b32565b5b9250929050565b610b9681610a70565b8114610ba157600080fd5b50565b600081359050610bb381610b8d565b92915050565b60008060008060008060008060a0898b031215610bd957610bd861093c565b5b6000610be78b828c0161098f565b985050602089013567ffffffffffffffff811115610c0857610c07610941565b5b610c148b828c01610b37565b97509750506040610c278b828c01610ba4565b955050606089013567ffffffffffffffff811115610c4857610c47610941565b5b610c548b828c01610b37565b9450945050608089013567ffffffffffffffff811115610c7757610c76610941565b5b610c838b828c01610b37565b92509250509295985092959890939650565b610c9e81610966565b82525050565b600082825260208201905092915050565b6000610cc0826109e0565b610cca8185610ca4565b9350610cda8185602086016109fc565b610ce381610a26565b840191505092915050565b610cf781610a70565b82525050565b600060e083016000830151610d156000860182610c95565b506020830151610d286020860182610c95565b5060408301518482036040860152610d408282610cb5565b9150506060830151610d556060860182610cee565b5060808301518482036080860152610d6d8282610cb5565b91505060a083015184820360a0860152610d878282610cb5565b91505060c0830151610d9c60c0860182610cee565b508091505092915050565b60006020820190508181036000830152610dc18184610cfd565b905092915050565b7f4e487b7100000000000000000000000000000000000000000000000000000000600052602260045260246000fd5b60006002820490506001821680610e1057607f821691505b602082108103610e2357610e22610dc9565b5b50919050565b7f4e487b7100000000000000000000000000000000000000000000000000000000600052604160045260246000fd5b60008190508160005260206000209050919050565b60006020601f8301049050919050565b600082821b905092915050565b600060088302610eba7fffffffffffffffffffffffffffffffffffffffffffffffffffffffffffffffff82610e7d565b610ec48683610e7d565b95508019841693508086168417925050509392505050565b6000819050919050565b6000610f01610efc610ef784610a70565b610edc565b610a70565b9050919050565b6000819050919050565b610f1b83610ee6565b610f2f610f2782610f08565b848454610e8a565b825550505050565b600090565b610f44610f37565b610f4f818484610f12565b505050565b5b81811015610f7357610f68600082610f3c565b600181019050610f55565b5050565b601f821115610fb857610f8981610e58565b610f9284610e6d565b81016020851015610fa1578190505b610fb5610fad85610e6d565b830182610f54565b50505b505050565b600082821c905092915050565b6000610fdb60001984600802610fbd565b1980831691505092915050565b6000610ff48383610fca565b9150826002028217905092915050565b61100d826109e0565b67ffffffffffffffff81111561102657611025610e29565b5b6110308254610df8565b61103b828285610f77565b600060209050601f83116001811461106e576000841561105c578287015190505b6110668582610fe8565b8655506110ce565b601f19841661107c86610e58565b60005b828110156110a45784890151825560018201915060208501945060208101905061107f565b868310156110c157848901516110bd601f891682610fca565b8355505b6001600288020188555050505b505050505050565b7f4e487b7100000000000000000000000000000000000000000000000000000000600052601160045260246000fd5b600061111082610a70565b91507fffffffffffffffffffffffffffffffffffffffffffffffffffffffffffffffff8203611142576111416110d6565b5b60018201905091905056fea264697066735822122083d6913e9f8c8698e8d1944c35939822dac8a4c31a88b44849322861c7a6b14164736f6c63430008140033","linkReferences":{}},"methodIdentifiers":{"attest(address,string,uint256,string,string)":"f7599eba","attestationCount()":"a15b9321","attestations(address)":"20357048","getAttestation(address)":"f9b71797"},"id":0}